{"abi":[{"type":"constructor","inputs":[{"name":"owner_","type":"address","internalType":"address"}],"stateMutability":"nonpayable"},{"type":"receive","stateMutability":"payable"},{"type":"function","name":"L2_RESOLVER","inputs":[],"outputs":[{"name":"","type":"address","internalType":"address"}],"stateMutability":"view"},{"type":"function","name":"MIN_REGISTRATION_DURATION","inputs":[],"outputs":[{"name":"","type":"uint256","internalType":"uint256"}],"stateMutability":"view"},{"type":"function","name":"REGISTRAR_CONTROLLER","inputs":[],"outputs":[{"name":"","type":"address","internalType":"address"}],"stateMutability":"view"},{"type":"function","name":"REVERSE_REGISTRAR","inputs":[],"outputs":[{"name":"","type":"address","internalType":"address"}],"stateMutability":"view"},{"type":"function","name":"count","inputs":[],"outputs":[{"name":"","type":"uint256","internalType":"uint256"}],"stateMutability":"view"},{"type":"function","name":"getBasenamePrice","inputs":[{"name":"name","type":"string","internalType":"string"},{"name":"duration","type":"uint256","internalType":"uint256"}],"outputs":[{"name":"","type":"uint256","internalType":"uint256"}],"stateMutability":"view"},{"type":"function","name":"getCount","inputs":[],"outputs":[{"name":"","type":"uint256","internalType":"uint256"}],"stateMutability":"view"},{"type":"function","name":"increment","inputs":[],"outputs":[],"stateMutability":"nonpayable"},{"type":"function","name":"owner","inputs":[],"outputs":[{"name":"","type":"address","internalType":"address"}],"stateMutability":"view"},{"type":"function","name":"registerBasename","inputs":[{"name":"name","type":"string","internalType":"string"},{"name":"duration","type":"uint256","internalType":"uint256"}],"outputs":[],"stateMutability":"payable"},{"type":"function","name":"setForwardResolution","inputs":[{"name":"name","type":"string","internalType":"string"}],"outputs":[],"stateMutability":"nonpayable"},{"type":"function","name":"setPrimaryBasename","inputs":[{"name":"name","type":"string","internalType":"string"}],"outputs":[],"stateMutability":"nonpayable"},{"type":"function","name":"transferOwnership","inputs":[{"name":"newOwner","type":"address","internalType":"address"}],"outputs":[],"stateMutability":"nonpayable"},{"type":"event","name":"BasenameRegistered","inputs":[{"name":"name","type":"string","indexed":true,"internalType":"string"},{"name":"contractAddress","type":"address","indexed":true,"internalType":"address"},{"name":"duration","type":"uint256","indexed":false,"internalType":"uint256"}],"anonymous":false},{"type":"event","name":"CountIncremented","inputs":[{"name":"by","type":"address","indexed":true,"internalType":"address"},{"name":"newCount","type":"uint256","indexed":false,"internalType":"uint256"}],"anonymous":false},{"type":"event","name":"ForwardResolutionSet","inputs":[{"name":"name","type":"string","indexed":true,"internalType":"string"},{"name":"contractAddress","type":"address","indexed":true,"internalType":"address"}],"anonymous":false},{"type":"event","name":"OwnershipTransferred","inputs":[{"name":"previousOwner","type":"address","indexed":true,"internalType":"address"},{"name":"newOwner","type":"address","indexed":true,"internalType":"address"}],"anonymous":false},{"type":"event","name":"PrimaryBasenameSet","inputs":[{"name":"name","type":"string","indexed":true,"internalType":"string"},{"name":"contractAddress","type":"address","indexed":true,"internalType":"address"}],"anonymous":false},{"type":"error","name":"EmptyName","inputs":[]},{"type":"error","name":"InsufficientETH","inputs":[{"name":"required","type":"uint256","internalType":"uint256"},{"name":"provided","type":"uint256","internalType":"uint256"}]},{"type":"error","name":"InvalidDuration","inputs":[]},{"type":"error","name":"NotOwner","inputs":[]}],"bytecode":{"object":"0x608060405234801561000f575f80fd5b50604051610f82380380610f8283398101604081905261002e91610053565b600380546001600160a01b0319166001600160a01b0392909216919091179055610080565b5f60208284031215610063575f80fd5b81516001600160a01b0381168114610079575f80fd5b9392505050565b610ef58061008d5f395ff3fe6080604052600436106100c2575f3560e01c80638a95b09f1161007c578063a06c751b11610057578063a06c751b14610203578063a87d942c1461022a578063d09de08a1461023e578063f2fde38b14610252575f80fd5b80638a95b09f146101a65780638da5cb5b146101bd578063952899fc146101dc575f80fd5b806306661abd146100cd5780630efdc4d5146100f55780632b967539146101345780636b7929a5146101555780636f635d331461017457806388b33b6514610193575f80fd5b366100c957005b5f80fd5b3480156100d8575f80fd5b506100e260045481565b6040519081526020015b60405180910390f35b348015610100575f80fd5b5061011c73c6d566a56a1aff6508b41f6c90ff131615583bcd81565b6040516001600160a01b0390911681526020016100ec565b34801561013f575f80fd5b5061015361014e366004610b29565b610271565b005b348015610160575f80fd5b5061015361016f366004610b29565b6102a8565b34801561017f575f80fd5b506100e261018e366004610b63565b6102dc565b6101536101a1366004610b63565b610373565b3480156101b1575f80fd5b506100e26301e1338081565b3480156101c8575f80fd5b5060035461011c906001600160a01b031681565b3480156101e7575f80fd5b5061011c7379ea96012eea67a83431f1701b3dff7e37f9e28281565b34801561020e575f80fd5b5061011c73a7d2607c6bd39ae9521e514026cbb078405ab32281565b348015610235575f80fd5b506004546100e2565b348015610249575f80fd5b506101536103ac565b34801561025d575f80fd5b5061015361026c366004610ba5565b6103fd565b6003546001600160a01b0316331461029c576040516330cd747160e01b815260040160405180910390fd5b6102a581610483565b50565b6003546001600160a01b031633146102d3576040516330cd747160e01b815260040160405180910390fd5b6102a5816105a2565b5f806102e66106b1565b90505f816001600160a01b03166383e7f6ff86866040518363ffffffff1660e01b8152600401610317929190610c1f565b6040805180830381865afa158015610331573d5f803e3d5ffd5b505050506040513d601f19601f820116820180604052508101906103559190610c40565b6020810151815191925061036891610ca1565b925050505b92915050565b6003546001600160a01b0316331461039e576040516330cd747160e01b815260040160405180910390fd5b6103a882826106e8565b5050565b600160045f8282546103be9190610ca1565b909155505060045460405190815233907f66e68b0f81b27905187c1253498474c586eef78d11987ee7ea04427459d2daa99060200160405180910390a2565b6003546001600160a01b03163314610428576040516330cd747160e01b815260040160405180910390fd5b6003546040516001600160a01b038084169216907f8be0079c531659141344cd1fd0a4f28419497f9722a3daafe3b4186f6b6457e0905f90a3600380546001600160a01b0319166001600160a01b0392909216919091179055565b80515f036104a457604051632ef1310560e01b815260040160405180910390fd5b5f6104f9828051602091820120604080517fff1e3c0eb00ec714e34b6114125fbde1dea2f24a72fbf672e7b7fd5690328e10818501528082019290925280518083038201815260609092019052805191012090565b9050610503610961565b60405162d5fa2b60e81b8152600481018390523060248201526001600160a01b03919091169063d5fa2b00906044015f604051808303815f87803b158015610549575f80fd5b505af115801561055b573d5f803e3d5ffd5b505060405130925061056f91508490610cb4565b604051908190038120907f29c580b61013750394afd3bda8978de4b542fd855b3a6510aeb0ad552f75a4fe905f90a35050565b80515f036105c357604051632ef1310560e01b815260040160405180910390fd5b5f6105cd82610994565b6105f657816040516020016105e29190610ccf565b6040516020818303038152906040526105f8565b815b9050610602610a59565b6001600160a01b031663c47f0027826040518263ffffffff1660e01b815260040161062d9190610cfb565b6020604051808303815f875af1158015610649573d5f803e3d5ffd5b505050506040513d601f19601f8201168201806040525081019061066d9190610d0d565b50604051309061067e908490610cb4565b604051908190038120907f162c114c9fdf3df7af00b8404ca86986fd5f2ced314c402d395049e614118cf3905f90a35050565b5f805460ff166106d4575073a7d2607c6bd39ae9521e514026cbb078405ab32290565b505f5461010090046001600160a01b031690565b81515f0361070957604051632ef1310560e01b815260040160405180910390fd5b6301e1338081101561072e57604051637616640160e01b815260040160405180910390fd5b5f6107376106b1565b90505f816001600160a01b03166383e7f6ff85856040518363ffffffff1660e01b8152600401610768929190610c1f565b6040805180830381865afa158015610782573d5f803e3d5ffd5b505050506040513d601f19601f820116820180604052508101906107a69190610c40565b90505f8160200151825f01516107bc9190610ca1565b604080515f8082526020820190925291925090816107ea565b60608152602001906001900390816107d55790505b50604080515f80825261014082018352602082018a8152309383019390935260608201899052929350919060808301610821610961565b6001600160a01b031681526020018481526020016001151581526020018381526020015f815260200160405180602001604052805f8152508152509050856001600160a01b031663a3f71f3385836040518363ffffffff1660e01b815260040161088b9190610db6565b5f604051808303818588803b1580156108a2575f80fd5b505af11580156108b4573d5f803e3d5ffd5b50479350508215915061090c9050576040515f90339083908381818185875af1925050503d805f8114610902576040519150601f19603f3d011682016040523d82523d5f602084013e610907565b606091505b505050505b604051309061091c908b90610cb4565b6040519081900381208a8252907f1a46c11fa155c5ad129231b30239e2ca4db17faa8c81066a1466680d5c5b50099060200160405180910390a3505050505050505050565b5f805460ff16610984575073c6d566a56a1aff6508b41f6c90ff131615583bcd90565b506002546001600160a01b031690565b6040805180820190915260098082526805cc4c2e6ca5ccae8d60bb1b602083015282515f928492909110156109cc57505f9392505050565b5f5b8151811015610a4e578181815181106109e9576109e9610e98565b602001015160f81c60f81b6001600160f81b031916838284518651610a0e9190610eac565b610a189190610ca1565b81518110610a2857610a28610e98565b01602001516001600160f81b03191614610a4657505f949350505050565b6001016109ce565b506001949350505050565b5f805460ff16610a7c57507379ea96012eea67a83431f1701b3dff7e37f9e28290565b506001546001600160a01b031690565b634e487b7160e01b5f52604160045260245ffd5b5f82601f830112610aaf575f80fd5b813567ffffffffffffffff80821115610aca57610aca610a8c565b604051601f8301601f19908116603f01168101908282118183101715610af257610af2610a8c565b81604052838152866020858801011115610b0a575f80fd5b836020870160208301375f602085830101528094505050505092915050565b5f60208284031215610b39575f80fd5b813567ffffffffffffffff811115610b4f575f80fd5b610b5b84828501610aa0565b949350505050565b5f8060408385031215610b74575f80fd5b823567ffffffffffffffff811115610b8a575f80fd5b610b9685828601610aa0565b95602094909401359450505050565b5f60208284031215610bb5575f80fd5b81356001600160a01b0381168114610bcb575f80fd5b9392505050565b5f5b83811015610bec578181015183820152602001610bd4565b50505f910152565b5f8151808452610c0b816020860160208601610bd2565b601f01601f19169290920160200192915050565b604081525f610c316040830185610bf4565b90508260208301529392505050565b5f60408284031215610c50575f80fd5b6040516040810181811067ffffffffffffffff82111715610c7357610c73610a8c565b604052825181526020928301519281019290925250919050565b634e487b7160e01b5f52601160045260245ffd5b8082018082111561036d5761036d610c8d565b5f8251610cc5818460208701610bd2565b9190910192915050565b5f8251610ce0818460208701610bd2565b6805cc4c2e6ca5ccae8d60bb1b920191825250600901919050565b602081525f610bcb6020830184610bf4565b5f60208284031215610d1d575f80fd5b5051919050565b5f8282518085526020808601955060208260051b840101602086015f5b84811015610d6f57601f19868403018952610d5d838351610bf4565b98840198925090830190600101610d41565b5090979650505050505050565b5f815180845260208085019450602084015f5b83811015610dab57815187529582019590820190600101610d8f565b509495945050505050565b602081525f8251610120806020850152610dd4610140850183610bf4565b91506020850151610df060408601826001600160a01b03169052565b50604085015160608501526060850151610e1560808601826001600160a01b03169052565b506080850151601f19808685030160a0870152610e328483610d24565b935060a08701519150610e4960c087018315159052565b60c08701519150808685030160e0870152610e648483610d7c565b60e0880151610100888101919091528801518782039092018488015293509050610e8e8382610bf4565b9695505050505050565b634e487b7160e01b5f52603260045260245ffd5b8181038181111561036d5761036d610c8d56fea2646970667358221220a662809ee91ace3fa4802b6aa1eb32975269254c1c16b33c1d5b21dd9e9ff40364736f6c63430008170033","linkReferences":{}},"methodIdentifiers":{"L2_RESOLVER()":"0efdc4d5","MIN_REGISTRATION_DURATION()":"8a95b09f","REGISTRAR_CONTROLLER()":"a06c751b","REVERSE_REGISTRAR()":"952899fc","count()":"06661abd","getBasenamePrice(string,uint256)":"6f635d33","getCount()":"a87d942c","increment()":"d09de08a","owner()":"8da5cb5b","registerBasename(string,uint256)":"88b33b65","setForwardResolution(string)":"2b967539","setPrimaryBasename(string)":"6b7929a5","transferOwnership(address)":"f2fde38b"},"id":5}