{"abi":[{"type":"constructor","inputs":[{"name":"owner_","type":"address","internalType":"address"}],"stateMutability":"nonpayable"},{"type":"receive","stateMutability":"payable"},{"type":"function","name":"L2_RESOLVER","inputs":[],"outputs":[{"name":"","type":"address","internalType":"address"}],"stateMutability":"view"},{"type":"function","name":"MIN_REGISTRATION_DURATION","inputs":[],"outputs":[{"name":"","type":"uint256","internalType":"uint256"}],"stateMutability":"view"},{"type":"function","name":"REGISTRAR_CONTROLLER","inputs":[],"outputs":[{"name":"","type":"address","internalType":"address"}],"stateMutability":"view"},{"type":"function","name":"REVERSE_REGISTRAR","inputs":[],"outputs":[{"name":"","type":"address","internalType":"address"}],"stateMutability":"view"},{"type":"function","name":"count","inputs":[],"outputs":[{"name":"","type":"uint256","internalType":"uint256"}],"stateMutability":"view"},{"type":"function","name":"getBasenamePrice","inputs":[{"name":"name","type":"string","internalType":"string"},{"name":"duration","type":"uint256","internalType":"uint256"}],"outputs":[{"name":"","type":"uint256","internalType":"uint256"}],"stateMutability":"view"},{"type":"function","name":"getCount","inputs":[],"outputs":[{"name":"","type":"uint256","internalType":"uint256"}],"stateMutability":"view"},{"type":"function","name":"increment","inputs":[],"outputs":[],"stateMutability":"nonpayable"},{"type":"function","name":"owner","inputs":[],"outputs":[{"name":"","type":"address","internalType":"address"}],"stateMutability":"view"},{"type":"function","name":"registerBasename","inputs":[{"name":"name","type":"string","internalType":"string"},{"name":"duration","type":"uint256","internalType":"uint256"}],"outputs":[],"stateMutability":"payable"},{"type":"function","name":"setPrimaryBasename","inputs":[{"name":"name","type":"string","internalType":"string"}],"outputs":[],"stateMutability":"nonpayable"},{"type":"function","name":"transferOwnership","inputs":[{"name":"newOwner","type":"address","internalType":"address"}],"outputs":[],"stateMutability":"nonpayable"},{"type":"event","name":"BasenameRegistered","inputs":[{"name":"name","type":"string","indexed":true,"internalType":"string"},{"name":"contractAddress","type":"address","indexed":true,"internalType":"address"},{"name":"duration","type":"uint256","indexed":false,"internalType":"uint256"}],"anonymous":false},{"type":"event","name":"CountIncremented","inputs":[{"name":"by","type":"address","indexed":true,"internalType":"address"},{"name":"newCount","type":"uint256","indexed":false,"internalType":"uint256"}],"anonymous":false},{"type":"event","name":"OwnershipTransferred","inputs":[{"name":"previousOwner","type":"address","indexed":true,"internalType":"address"},{"name":"newOwner","type":"address","indexed":true,"internalType":"address"}],"anonymous":false},{"type":"event","name":"PrimaryBasenameSet","inputs":[{"name":"name","type":"string","indexed":true,"internalType":"string"},{"name":"contractAddress","type":"address","indexed":true,"internalType":"address"}],"anonymous":false},{"type":"error","name":"EmptyName","inputs":[]},{"type":"error","name":"InsufficientETH","inputs":[{"name":"required","type":"uint256","internalType":"uint256"},{"name":"provided","type":"uint256","internalType":"uint256"}]},{"type":"error","name":"InvalidDuration","inputs":[]},{"type":"error","name":"NotOwner","inputs":[]},{"type":"error","name":"RegistrationFailed","inputs":[]}],"bytecode":{"object":"0x608060405234801561000f575f80fd5b50604051610e3d380380610e3d83398101604081905261002e91610057565b600380546001600160a01b0319166001600160a01b03929092169190911790555f600455610084565b5f60208284031215610067575f80fd5b81516001600160a01b038116811461007d575f80fd5b9392505050565b610dac806100915f395ff3fe6080604052600436106100a8575f3560e01c80638da5cb5b116100625780638da5cb5b14610184578063952899fc146101a3578063a06c751b146101ca578063a87d942c146101f1578063d09de08a14610205578063f2fde38b14610219575f80fd5b806306661abd146100b35780630efdc4d5146100db5780636b7929a51461011a5780636f635d331461013b57806388b33b651461015a5780638a95b09f1461016d575f80fd5b366100af57005b5f80fd5b3480156100be575f80fd5b506100c860045481565b6040519081526020015b60405180910390f35b3480156100e6575f80fd5b5061010273c6d566a56a1aff6508b41f6c90ff131615583bcd81565b6040516001600160a01b0390911681526020016100d2565b348015610125575f80fd5b506101396101343660046109e0565b610238565b005b348015610146575f80fd5b506100c8610155366004610a1a565b61026f565b610139610168366004610a1a565b610306565b348015610178575f80fd5b506100c86301e1338081565b34801561018f575f80fd5b50600354610102906001600160a01b031681565b3480156101ae575f80fd5b506101027379ea96012eea67a83431f1701b3dff7e37f9e28281565b3480156101d5575f80fd5b5061010273a7d2607c6bd39ae9521e514026cbb078405ab32281565b3480156101fc575f80fd5b506004546100c8565b348015610210575f80fd5b5061013961033f565b348015610224575f80fd5b50610139610233366004610a5c565b610390565b6003546001600160a01b03163314610263576040516330cd747160e01b815260040160405180910390fd5b61026c81610416565b50565b5f80610279610525565b90505f816001600160a01b03166383e7f6ff86866040518363ffffffff1660e01b81526004016102aa929190610ad6565b6040805180830381865afa1580156102c4573d5f803e3d5ffd5b505050506040513d601f19601f820116820180604052508101906102e89190610af7565b602081015181519192506102fb91610b58565b925050505b92915050565b6003546001600160a01b03163314610331576040516330cd747160e01b815260040160405180910390fd5b61033b828261055c565b5050565b600160045f8282546103519190610b58565b909155505060045460405190815233907f66e68b0f81b27905187c1253498474c586eef78d11987ee7ea04427459d2daa99060200160405180910390a2565b6003546001600160a01b031633146103bb576040516330cd747160e01b815260040160405180910390fd5b6003546040516001600160a01b038084169216907f8be0079c531659141344cd1fd0a4f28419497f9722a3daafe3b4186f6b6457e0905f90a3600380546001600160a01b0319166001600160a01b0392909216919091179055565b80515f0361043757604051632ef1310560e01b815260040160405180910390fd5b8061044181610818565b61046857816040516020016104569190610b6b565b60405160208183030381529060405290505b5f6104716108dd565b60405163c47f002760e01b81529091506001600160a01b0382169063c47f0027906104a0908590600401610b97565b6020604051808303815f875af11580156104bc573d5f803e3d5ffd5b505050506040513d601f19601f820116820180604052508101906104e09190610ba9565b5060405130906104f1908590610bc0565b604051908190038120907f162c114c9fdf3df7af00b8404ca86986fd5f2ced314c402d395049e614118cf3905f90a3505050565b5f805460ff16610548575073a7d2607c6bd39ae9521e514026cbb078405ab32290565b505f5461010090046001600160a01b031690565b81515f0361057d57604051632ef1310560e01b815260040160405180910390fd5b6301e133808110156105a257604051637616640160e01b815260040160405180910390fd5b5f6105ab610525565b90505f6105b66108dd565b90505f6105c1610910565b90505f836001600160a01b03166383e7f6ff87876040518363ffffffff1660e01b81526004016105f2929190610ad6565b6040805180830381865afa15801561060c573d5f803e3d5ffd5b505050506040513d601f19601f820116820180604052508101906106309190610af7565b90505f8160200151825f01516106469190610b58565b9050804710156106755760405162fdf57560e51b81526004810182905247602482015260440160405180910390fd5b604080515f808252602082019092528161069f565b606081526020019060019003908161068a5790505b50604080515f80825261014082018352602082018c81523093830193909352606082018b90529293509190608083016106d6610910565b6001600160a01b031681526020018481526020016001151581526020018381526020015f815260200160405180602001604052805f8152508152509050876001600160a01b031663a3f71f3385836040518363ffffffff1660e01b81526004016107409190610c6d565b5f604051808303818588803b158015610757575f80fd5b505af1158015610769573d5f803e3d5ffd5b5047935050821591506107c19050576040515f90339083908381818185875af1925050503d805f81146107b7576040519150601f19603f3d011682016040523d82523d5f602084013e6107bc565b606091505b505050505b60405130906107d1908d90610bc0565b6040519081900381208c8252907f1a46c11fa155c5ad129231b30239e2ca4db17faa8c81066a1466680d5c5b50099060200160405180910390a35050505050505050505050565b6040805180820190915260098082526805cc4c2e6ca5ccae8d60bb1b602083015282515f9284929091101561085057505f9392505050565b5f5b81518110156108d25781818151811061086d5761086d610d4f565b602001015160f81c60f81b6001600160f81b0319168382845186516108929190610d63565b61089c9190610b58565b815181106108ac576108ac610d4f565b01602001516001600160f81b031916146108ca57505f949350505050565b600101610852565b506001949350505050565b5f805460ff1661090057507379ea96012eea67a83431f1701b3dff7e37f9e28290565b506001546001600160a01b031690565b5f805460ff16610933575073c6d566a56a1aff6508b41f6c90ff131615583bcd90565b506002546001600160a01b031690565b634e487b7160e01b5f52604160045260245ffd5b5f82601f830112610966575f80fd5b813567ffffffffffffffff8082111561098157610981610943565b604051601f8301601f19908116603f011681019082821181831017156109a9576109a9610943565b816040528381528660208588010111156109c1575f80fd5b836020870160208301375f602085830101528094505050505092915050565b5f602082840312156109f0575f80fd5b813567ffffffffffffffff811115610a06575f80fd5b610a1284828501610957565b949350505050565b5f8060408385031215610a2b575f80fd5b823567ffffffffffffffff811115610a41575f80fd5b610a4d85828601610957565b95602094909401359450505050565b5f60208284031215610a6c575f80fd5b81356001600160a01b0381168114610a82575f80fd5b9392505050565b5f5b83811015610aa3578181015183820152602001610a8b565b50505f910152565b5f8151808452610ac2816020860160208601610a89565b601f01601f19169290920160200192915050565b604081525f610ae86040830185610aab565b90508260208301529392505050565b5f60408284031215610b07575f80fd5b6040516040810181811067ffffffffffffffff82111715610b2a57610b2a610943565b604052825181526020928301519281019290925250919050565b634e487b7160e01b5f52601160045260245ffd5b8082018082111561030057610300610b44565b5f8251610b7c818460208701610a89565b6805cc4c2e6ca5ccae8d60bb1b920191825250600901919050565b602081525f610a826020830184610aab565b5f60208284031215610bb9575f80fd5b5051919050565b5f8251610bd1818460208701610a89565b9190910192915050565b5f8282518085526020808601955060208260051b840101602086015f5b84811015610c2657601f19868403018952610c14838351610aab565b98840198925090830190600101610bf8565b5090979650505050505050565b5f815180845260208085019450602084015f5b83811015610c6257815187529582019590820190600101610c46565b509495945050505050565b602081525f8251610120806020850152610c8b610140850183610aab565b91506020850151610ca760408601826001600160a01b03169052565b50604085015160608501526060850151610ccc60808601826001600160a01b03169052565b506080850151601f19808685030160a0870152610ce98483610bdb565b935060a08701519150610d0060c087018315159052565b60c08701519150808685030160e0870152610d1b8483610c33565b60e0880151610100888101919091528801518782039092018488015293509050610d458382610aab565b9695505050505050565b634e487b7160e01b5f52603260045260245ffd5b8181038181111561030057610300610b4456fea2646970667358221220c8deaee301d419bd96578c83449c49776d038c6693002427641290e93fbc5f2664736f6c63430008170033","linkReferences":{}},"methodIdentifiers":{"L2_RESOLVER()":"0efdc4d5","MIN_REGISTRATION_DURATION()":"8a95b09f","REGISTRAR_CONTROLLER()":"a06c751b","REVERSE_REGISTRAR()":"952899fc","count()":"06661abd","getBasenamePrice(string,uint256)":"6f635d33","getCount()":"a87d942c","increment()":"d09de08a","owner()":"8da5cb5b","registerBasename(string,uint256)":"88b33b65","setPrimaryBasename(string)":"6b7929a5","transferOwnership(address)":"f2fde38b"},"id":5}