{"abi":[{"type":"constructor","inputs":[{"name":"owner_","type":"address","internalType":"address"}],"stateMutability":"nonpayable"},{"type":"receive","stateMutability":"payable"},{"type":"function","name":"L2_RESOLVER","inputs":[],"outputs":[{"name":"","type":"address","internalType":"address"}],"stateMutability":"view"},{"type":"function","name":"MIN_REGISTRATION_DURATION","inputs":[],"outputs":[{"name":"","type":"uint256","internalType":"uint256"}],"stateMutability":"view"},{"type":"function","name":"REGISTRAR_CONTROLLER","inputs":[],"outputs":[{"name":"","type":"address","internalType":"address"}],"stateMutability":"view"},{"type":"function","name":"REVERSE_REGISTRAR","inputs":[],"outputs":[{"name":"","type":"address","internalType":"address"}],"stateMutability":"view"},{"type":"function","name":"count","inputs":[],"outputs":[{"name":"","type":"uint256","internalType":"uint256"}],"stateMutability":"view"},{"type":"function","name":"getBasenamePrice","inputs":[{"name":"name","type":"string","internalType":"string"},{"name":"duration","type":"uint256","internalType":"uint256"}],"outputs":[{"name":"","type":"uint256","internalType":"uint256"}],"stateMutability":"view"},{"type":"function","name":"getCount","inputs":[],"outputs":[{"name":"","type":"uint256","internalType":"uint256"}],"stateMutability":"view"},{"type":"function","name":"increment","inputs":[],"outputs":[],"stateMutability":"nonpayable"},{"type":"function","name":"owner","inputs":[],"outputs":[{"name":"","type":"address","internalType":"address"}],"stateMutability":"view"},{"type":"function","name":"registerBasename","inputs":[{"name":"name","type":"string","internalType":"string"},{"name":"duration","type":"uint256","internalType":"uint256"}],"outputs":[],"stateMutability":"payable"},{"type":"function","name":"setPrimaryBasename","inputs":[{"name":"name","type":"string","internalType":"string"}],"outputs":[],"stateMutability":"nonpayable"},{"type":"function","name":"transferOwnership","inputs":[{"name":"newOwner","type":"address","internalType":"address"}],"outputs":[],"stateMutability":"nonpayable"},{"type":"event","name":"BasenameRegistered","inputs":[{"name":"name","type":"string","indexed":true,"internalType":"string"},{"name":"contractAddress","type":"address","indexed":true,"internalType":"address"},{"name":"duration","type":"uint256","indexed":false,"internalType":"uint256"}],"anonymous":false},{"type":"event","name":"CountIncremented","inputs":[{"name":"by","type":"address","indexed":true,"internalType":"address"},{"name":"newCount","type":"uint256","indexed":false,"internalType":"uint256"}],"anonymous":false},{"type":"event","name":"OwnershipTransferred","inputs":[{"name":"previousOwner","type":"address","indexed":true,"internalType":"address"},{"name":"newOwner","type":"address","indexed":true,"internalType":"address"}],"anonymous":false},{"type":"event","name":"PrimaryBasenameSet","inputs":[{"name":"name","type":"string","indexed":true,"internalType":"string"},{"name":"contractAddress","type":"address","indexed":true,"internalType":"address"}],"anonymous":false},{"type":"error","name":"EmptyName","inputs":[]},{"type":"error","name":"InsufficientETH","inputs":[{"name":"required","type":"uint256","internalType":"uint256"},{"name":"provided","type":"uint256","internalType":"uint256"}]},{"type":"error","name":"InvalidDuration","inputs":[]},{"type":"error","name":"NotOwner","inputs":[]},{"type":"error","name":"RegistrationFailed","inputs":[]}],"bytecode":{"object":"0x608060405234801561000f575f80fd5b50604051610e20380380610e2083398101604081905261002e91610057565b600380546001600160a01b0319166001600160a01b03929092169190911790555f600455610084565b5f60208284031215610067575f80fd5b81516001600160a01b038116811461007d575f80fd5b9392505050565b610d8f806100915f395ff3fe6080604052600436106100a8575f3560e01c80638da5cb5b116100625780638da5cb5b14610184578063952899fc146101a3578063a06c751b146101ca578063a87d942c146101f1578063d09de08a14610205578063f2fde38b14610219575f80fd5b806306661abd146100b35780630efdc4d5146100db5780636b7929a51461011a5780636f635d331461013b57806388b33b651461015a5780638a95b09f1461016d575f80fd5b366100af57005b5f80fd5b3480156100be575f80fd5b506100c860045481565b6040519081526020015b60405180910390f35b3480156100e6575f80fd5b5061010273c6d566a56a1aff6508b41f6c90ff131615583bcd81565b6040516001600160a01b0390911681526020016100d2565b348015610125575f80fd5b50610139610134366004610a7a565b610238565b005b348015610146575f80fd5b506100c8610155366004610ab4565b61026f565b610139610168366004610ab4565b610306565b348015610178575f80fd5b506100c86301e1338081565b34801561018f575f80fd5b50600354610102906001600160a01b031681565b3480156101ae575f80fd5b506101027379ea96012eea67a83431f1701b3dff7e37f9e28281565b3480156101d5575f80fd5b50610102734ccb0bb02fcaba27e82a56646e81d8c5bc4119a581565b3480156101fc575f80fd5b506004546100c8565b348015610210575f80fd5b5061013961033f565b348015610224575f80fd5b50610139610233366004610af6565b610390565b6003546001600160a01b03163314610263576040516330cd747160e01b815260040160405180910390fd5b61026c81610416565b50565b5f80610279610525565b90505f816001600160a01b03166383e7f6ff86866040518363ffffffff1660e01b81526004016102aa929190610b70565b6040805180830381865afa1580156102c4573d5f803e3d5ffd5b505050506040513d601f19601f820116820180604052508101906102e89190610b91565b602081015181519192506102fb91610bf2565b925050505b92915050565b6003546001600160a01b03163314610331576040516330cd747160e01b815260040160405180910390fd5b61033b828261055c565b5050565b600160045f8282546103519190610bf2565b909155505060045460405190815233907f66e68b0f81b27905187c1253498474c586eef78d11987ee7ea04427459d2daa99060200160405180910390a2565b6003546001600160a01b031633146103bb576040516330cd747160e01b815260040160405180910390fd5b6003546040516001600160a01b038084169216907f8be0079c531659141344cd1fd0a4f28419497f9722a3daafe3b4186f6b6457e0905f90a3600380546001600160a01b0319166001600160a01b0392909216919091179055565b80515f0361043757604051632ef1310560e01b815260040160405180910390fd5b80610441816108b2565b61046857816040516020016104569190610c05565b60405160208183030381529060405290505b5f610471610977565b60405163c47f002760e01b81529091506001600160a01b0382169063c47f0027906104a0908590600401610c31565b6020604051808303815f875af11580156104bc573d5f803e3d5ffd5b505050506040513d601f19601f820116820180604052508101906104e09190610c43565b5060405130906104f1908590610c5a565b604051908190038120907f162c114c9fdf3df7af00b8404ca86986fd5f2ced314c402d395049e614118cf3905f90a3505050565b5f805460ff166105485750734ccb0bb02fcaba27e82a56646e81d8c5bc4119a590565b505f5461010090046001600160a01b031690565b81515f0361057d57604051632ef1310560e01b815260040160405180910390fd5b6301e133808110156105a257604051637616640160e01b815260040160405180910390fd5b5f6105ab610525565b90505f6105b6610977565b90505f6105c16109aa565b90505f836001600160a01b03166383e7f6ff87876040518363ffffffff1660e01b81526004016105f2929190610b70565b6040805180830381865afa15801561060c573d5f803e3d5ffd5b505050506040513d601f19601f820116820180604052508101906106309190610b91565b90505f8160200151825f01516106469190610bf2565b9050804710156106755760405162fdf57560e51b81526004810182905247602482015260440160405180910390fd5b5f6106ca888051602091820120604080517fff1e3c0eb00ec714e2b7139c290c28ae5c1e7069d6d3cf41567aa5806d24a58c818501528082019290925280518083038201815260609092019052805191012090565b6040805160018082528183019092529192505f9190816020015b60608152602001906001900390816106e45750506040805160248101859052603c6044820152306064808301919091528251808303909101815260849091019091526020810180516001600160e01b0316636acdccb960e01b17905281519192509082905f9061075657610756610c75565b60200260200101819052505f6040518060c001604052808b8152602001306001600160a01b031681526020018a81526020016107906109aa565b6001600160a01b03168152602001838152602001600115158152509050876001600160a01b031663c7c7967685836040518363ffffffff1660e01b81526004016107da9190610c89565b5f604051808303818588803b1580156107f1575f80fd5b505af1158015610803573d5f803e3d5ffd5b50479350508215915061085b9050576040515f90339083908381818185875af1925050503d805f8114610851576040519150601f19603f3d011682016040523d82523d5f602084013e610856565b606091505b505050505b604051309061086b908d90610c5a565b6040519081900381208c8252907f1a46c11fa155c5ad129231b30239e2ca4db17faa8c81066a1466680d5c5b50099060200160405180910390a35050505050505050505050565b6040805180820190915260098082526805cc4c2e6ca5ccae8d60bb1b602083015282515f928492909110156108ea57505f9392505050565b5f5b815181101561096c5781818151811061090757610907610c75565b602001015160f81c60f81b6001600160f81b03191683828451865161092c9190610d46565b6109369190610bf2565b8151811061094657610946610c75565b01602001516001600160f81b0319161461096457505f949350505050565b6001016108ec565b506001949350505050565b5f805460ff1661099a57507379ea96012eea67a83431f1701b3dff7e37f9e28290565b506001546001600160a01b031690565b5f805460ff166109cd575073c6d566a56a1aff6508b41f6c90ff131615583bcd90565b506002546001600160a01b031690565b634e487b7160e01b5f52604160045260245ffd5b5f82601f830112610a00575f80fd5b813567ffffffffffffffff80821115610a1b57610a1b6109dd565b604051601f8301601f19908116603f01168101908282118183101715610a4357610a436109dd565b81604052838152866020858801011115610a5b575f80fd5b836020870160208301375f602085830101528094505050505092915050565b5f60208284031215610a8a575f80fd5b813567ffffffffffffffff811115610aa0575f80fd5b610aac848285016109f1565b949350505050565b5f8060408385031215610ac5575f80fd5b823567ffffffffffffffff811115610adb575f80fd5b610ae7858286016109f1565b95602094909401359450505050565b5f60208284031215610b06575f80fd5b81356001600160a01b0381168114610b1c575f80fd5b9392505050565b5f5b83811015610b3d578181015183820152602001610b25565b50505f910152565b5f8151808452610b5c816020860160208601610b23565b601f01601f19169290920160200192915050565b604081525f610b826040830185610b45565b90508260208301529392505050565b5f60408284031215610ba1575f80fd5b6040516040810181811067ffffffffffffffff82111715610bc457610bc46109dd565b604052825181526020928301519281019290925250919050565b634e487b7160e01b5f52601160045260245ffd5b8082018082111561030057610300610bde565b5f8251610c16818460208701610b23565b6805cc4c2e6ca5ccae8d60bb1b920191825250600901919050565b602081525f610b1c6020830184610b45565b5f60208284031215610c53575f80fd5b5051919050565b5f8251610c6b818460208701610b23565b9190910192915050565b634e487b7160e01b5f52603260045260245ffd5b5f6020808352835160c082850152610ca460e0850182610b45565b90508185015160018060a01b0380821660408701526040870151606087015280606088015116608087015250506080850151601f19808684030160a08701528282518085528585019150858160051b86010186850194505f5b82811015610d295784878303018452610d17828751610b45565b95880195938801939150600101610cfd565b5060a08a015180151560c08b015296509998505050505050505050565b8181038181111561030057610300610bde56fea2646970667358221220eebfb17293903ae301c20dc844a9ed87b26c08ca8d163e6fd75f17fcde6946c964736f6c63430008170033","linkReferences":{}},"methodIdentifiers":{"L2_RESOLVER()":"0efdc4d5","MIN_REGISTRATION_DURATION()":"8a95b09f","REGISTRAR_CONTROLLER()":"a06c751b","REVERSE_REGISTRAR()":"952899fc","count()":"06661abd","getBasenamePrice(string,uint256)":"6f635d33","getCount()":"a87d942c","increment()":"d09de08a","owner()":"8da5cb5b","registerBasename(string,uint256)":"88b33b65","setPrimaryBasename(string)":"6b7929a5","transferOwnership(address)":"f2fde38b"},"id":5}