{"abi":[{"type":"function","name":"BASE_ETH_NODE","inputs":[],"outputs":[{"name":"","type":"bytes32","internalType":"bytes32"}],"stateMutability":"view"}],"bytecode":{"object":"0x60a4610033600b8282823980515f1a607314602757634e487b7160e01b5f525f60045260245ffd5b305f52607381538281f3fe73000000000000000000000000000000000000000030146080604052600436106032575f3560e01c80634b19969b146036575b5f80fd5b605c7fff1e3c0eb00ec714e34b6114125fbde1dea2f24a72fbf672e7b7fd5690328e1081565b60405190815260200160405180910390f3fea26469706673582212206e42595c96703a108cadc48dc351c785725658caf91c0affb696f00fd243e93964736f6c63430008170033","linkReferences":{}},"methodIdentifiers":{"BASE_ETH_NODE()":"4b19969b"},"id":4}