{"abi":[{"type":"function","name":"BASE_ETH_NODE","inputs":[],"outputs":[{"name":"","type":"bytes32","internalType":"bytes32"}],"stateMutability":"view"}],"bytecode":{"object":"0x60a4610033600b8282823980515f1a607314602757634e487b7160e01b5f525f60045260245ffd5b305f52607381538281f3fe73000000000000000000000000000000000000000030146080604052600436106032575f3560e01c80634b19969b146036575b5f80fd5b605c7fff1e3c0eb00ec714e2b7139c290c28ae5c1e7069d6d3cf41567aa5806d24a58c81565b60405190815260200160405180910390f3fea264697066735822122039fd80fa5975e7d220b62c96873c545e62454c35f37535cd0810c0f98bf50e6564736f6c63430008170033","linkReferences":{}},"methodIdentifiers":{"BASE_ETH_NODE()":"4b19969b"},"id":4}